:400000000080002011000000010C0000010C000008B5044B1A6803F53F5302331A6000F009FE00BFFA46004010B5054C237833B9044B13B10448AFF300800123237010BD56
:40004000F881FF1F0000000080BD0000084B10B51BB108480849AFF300800848036803B910BD074B002BFBD0BDE81040184700BF0000000080BD0000FC81FF1F0881FF1FE7
:400080000000000038B56FF07F4005F06BF8164C2168164B83FB01020A44C917C1EB6212206883FB00130344C117C1EB6313C3EB03139B00C31A0E4D28460E4992B29BB27B
:4000C0000BF05AFA284650211E2205F0A3FA236801332360084B1B6813B1074B5B680BB901F0F0FA38BD00BF0C81FF1F8988888850E5FF1F84BD00001482FF1F70B501F092
:40010000A1FA012001F0A6FA0028FAD001F0B4FA80B20AF043FC0022234B0AF0A5FC0AF0DDFE224B586001F069FE012001F06EFE0028FAD001F082FE80B240000AF02EFC82
:4001400000221B4B0AF090FC0AF0C8FE194CA0606FF07F4005F006F8144B586816490BF01BF80BF08FF982B2144E154D304629460BF002FA30461421322205F04BFAA06817
:400180000D490BF009F80BF07DF982B20D4C204629460BF0F1F920467821322205F03AFA02F036F870BD00BF0000303F0C81FF1F0000F03E1482FF1F0000C842D0E4FF1FD5
:4001C00094BD000054B4FF1F70B5154600231C4606E030F91320002AB8BF5242144401338B42F6D3B4FBF1F404EB440464012246002C02DA04F5FF427F32D4134FF47F00B6
:4002000004F0B0FF174BDB682C3B174EA6FB0336C6F38F334FF4407696FBF3F655B94FF47F0004F09FFF0F4A13691169013111613C2209E04FF47F4004F094FF094A5369AE
:40024000516901315161B42204EBD474641006FB03F103FB0663101B60312244603305F0E1F970BD1482FF1F3BC637BE08B501F0FDF805F029F804F0F7FF024804F074FF54
:4002800008BD00BFC0C8000010B5A4B0044623A9042202F0ACFC9DF88C209DF88D309DF88E009DF88F100090019102A87E490BF063F902A80A211E2205F0ACF9204623A98E
:4002C000042202F094FC9DF88C309DF88D2043EA02239DF88E2043EA02439DF88F2043EA0263724AD360D26802A871490BF044F902A80A21322205F08DF9204623A9042225
:4003000002F075FC9DF88C209DF88D309DF88E009DF88F100090019102A866490BF02CF902A80A21462205F075F9204623A9042202F05DFC9DF88C209DF88D309DF88E00DC
:400340009DF88F100090019102A85B490BF014F902A80A215A2205F05DF9204623A9042202F045FC9DF88C309DF88D2043EA02239DF88E2043EA02439DF88F2002A84F498A
:4003800043EA02620BF0F8F802A80A216E2205F041F9204622A9022202F029FC9DF888309DF8892002A8464943EA02220BF0E4F802A80A21822205F02DF9204622A90222EC
:4003C00002F015FC9DF888309DF8892002A83D4943EA02220BF0D0F802A80A21962205F019F9204623A9042202F001FC9DF88C309DF88D2043EA02239DF88E2043EA0243B6
:400400009DF88F2002A8304943EA02620BF0B4F802A80A21AA2205F0FDF8204623A9042202F0E5FB9DF88C309DF88D2043EA02239DF88E2043EA02439DF88F2002A8234974
:4004400043EA02620BF098F802A80A21BE2205F0E1F8204622A9022202F0C9FB9DF888309DF8892002A81A4943EA02220BF084F802A80A21D22205F0CDF8204622A902229A
:4004800002F0B5FB9DF888309DF8892002A8114943EA02220BF070F802A80A21E62205F0B9F824B010BD00BFA4BD00001482FF1FBCBD0000D4BD0000E8BD000000BE0000F2
:4004C00014BE000024BE000034BE000048BE000058BE000068BE000030B5F3B002F0F4F94FF4FA6000F0CAFD00206FA9092202F089FB68B900238DF8C5317E480A210A4680
:4005000005F088F86FA80A211E2205F083F804E079480A210A4605F07DF8784802F0C9FC28B977480A21322205F074F8E0E075480A21322205F06EF860A87349734A1023C8
:4005400002F081F9F8B1724B03CB0024206061601A889B782281A372204620A90BF030F820460BF03CF86B4B1B8823526A480A21462205F04FF84FF4FA7000F07FFD60A8B2
:4005800002F005F904E065480A21462205F042F85E48634902F0BAFA624B1862002832D061480A21822205F035F85E4C206AFFF76BFE5E4D206AA96942F6F87202F017FB95
:4005C00040086062206AE96942F6F87202F00FFB4008A062626A684655490AF0CDFF68460A214FF48C7205F015F8636A2BB151480A21962205F00EF80AE04F480A21AA229B
:4006000005F008F804E04D480A21822205F002F84FF47A7000F032FD60A83B49484A102302F011F9F8B13A4B03CB0024206061601A889B782281A372204620A90AF0C0FF3F
:4006400020460AF0CCFF334B1B88235232480A21462204F0DFFF4FF4FA7000F00FFD60A802F095F804E02D480A21462204F0D2FF33482B4902F04AFA2A4BD862002832D0FB
:4006800029480A21822204F0C5FF264CE06AFFF7FBFD264DE06A296B42F6F87202F0A7FA40086062E06A696B42F6F87202F09FFA4008A062626A68461D490AF05DFF68468F
:4006C0000A214FF48C7204F0A5FF636A2BB119480A21962204F09EFF0AE017480A21AA2204F098FF04E015480A21822204F092FF73B030BD7CBE00008CBE0000A8BE00001E
:40070000ACBE0000C0BE0000D0BE00001481FF1FDCBE0000E8BE0000ECBE0000F4BE000004BF00001482FF1F08BF00000C81FF1F24BF000034BF00004CBF000060BF00000B
:400740002C81FF1F000000002DE9F843284C226B284DAB6933F81290226B2B6B33F812706868A1680AF010FC0646686831460AF0C7FD8046A06831460AF0C2FD05460FFAB4
:4007800089F00AF0B5FC41460AF006FD0AF054FE84B238B20AF0ACFC29460AF0FDFC0AF04BFE24B200B220440AF0F8F80EA3D3E900230AF059F90AF069FBB0F5004F01DBFE
:4007C00047F6FF7010F5004F00DA0B48A0F50040074A136B0133136380B201F0A9FCBDE8F88300BFAFF30080333333333333EB3F1482FF1F0C81FF1F0080FFFFAFF300805A
:4008000008B50E4B1B68ABB90C4B1A6B41F2FB739A420DD9094B00221A6301225A63084B9A69D9699961DA611A6B596B19635A63FFF78AFF00F034FD08BD00BF1482FF1F82
:400840000C81FF1F38B505460C466820002101F013FF284601F06CFF204601F069FF01F04BFF38BDF8B562B601F0A8FCFFF7FEFCFFF732FE00F05AFD644800F085FD04F015
:40088000F3FC634864210A2204F0C4FE614850211E2204F0BFFE604C606860490AF07CFC0AF0F0FD82B25E4D5E4F284639460AF063FE28461421322204F0ACFE5A4DA86896
:4008C00056490AF069FC0AF0DDFD82B2574E304639460AF051FE30467821322204F09AFEA06941F2FC710022FFF76EFC206B41F2FC710122FFF768FCEB6801F0C7FC00F056
:4009000093FE00F01DFF01F065FA494800F040FF01F038FD6820002101F0AEFE1A2001F007FF002001F004FF01F0E6FE6B200021FFF788FF1C200021FFF784FF2320002121
:40094000FFF780FF3B4801F0C9FC0124364B5B6B002BFBD0344B1B681BB1334B5B68002BF4D1314B1B684BB92F4B186A2A4BD96942F6F87202F03BF9450800E000252A4B23
:400980005B684BB9284BD86A234B596B42F6F87202F02DF9400800E000202DB9224B1B6813B90122204B1A6028B91F4B5B6813B901221D4B5A601C4B1B6893B11A4B5B6868
:4009C0007BB11D4804F0CEFB1C4832214FF4967204F020FE144B186A01F0D2FF184802F02BFA0022104B5A63062C0DDD0A4CA06941F2FC71FFF7E8FB206B41F2FC710122FF
:400A0000FFF7E2FB0024A1E701349FE70108000074BF00007CBF00000C81FF1F0000C842D0E4FF1F94BD00001482FF1F54B4FF1F85000000FD0000008080FF0088BF00008B
:400A4000A8BE000010B50446002000F02BFD204600F0CEFC00F0C0FC10F0010FFAD010BD10B50446012000F01DFD204600F0C0FC00F0B2FC10F0010FFAD010BD70B5064654
:400A80000D46012000F00EFD002408E0305D00F0AFFC00F0A1FC10F0010FFAD00134AC42F4DB70BDFEE700BFFEE700BF08B50120FFF7C8FF0A2000F0E1FA3620FFF7C2FF28
:400AC0008820FFF7CDFF3A20FFF7BCFF5520FFF7C7FF1120FFF7B6FF2920FFF7B3FFFA2000F0CCFA08BD00BF024A136801331360704700BF4C75002010B500F099FB0024FD
:400B000009E0204600F0AAFB20B92046064900F09DFB02E00134042CF3D9042C02D9002000F0AAFA10BD00BFE90A000008B5FFF7E3FF08BD08B504484FF4005104F032F855
:400B4000024804F05BFB08BD4C82FF1FCCC0000008B5FFF7ABFF08BD30B5A1B000241B941C941D941E941F9401A8214668220AF0FBFC154815492246234604F0ABFC0546B6
:400B80002046F0214FF4A07206F0A2FB2046F0214FF4A07206F0B4FB02231D9328461BA905F00BF90A4B01930A4B02930A4B04930A4B06930A4B0893284601A9094A0A4B08
:400BC00005F019F921B030BD74D500001CD50000450A0000610A00007D0A0000A50A0000A90A000069680000C9640000012904D108B5FFF7ADFF002008BD4FF0FF307047ED
:400C0000FEE700BF08B5094B1A681044084BC31A802B02DC054B186005E00AF053FC0C2303604FF0FF32104608BD00BF4481FF1F7877002008B5104E104D16E029686B68DA
:400C4000AC68002204E051F8040B43F8040B0432A242F8D1E868002203E0002143F8041B04328242F9D11035013E002EE6D10AF02FFCFFF7F7FDFEE70100000080DB000088
:400C800008B5124A124B1A60124A136843F40073136000230AE0032B03D80F4A52F8231000E00E490E4A42F8231001332F2BF2D90C4B1A780C4B1A70094A0C4B1A6000F031
:400CC00029F900220A4B1A6008BD00BF0004FA050CED00E014ED00E000000000010C00000080FF1FBC7600400481FF1F08ED00E00081FF1FFEE700BFF0B40022174611E0B4
:400D000050F82760F3B226F0FF0608E001EB420511F812406D78A5550132013BDBB2002BF4D10137292FEBD9F0BC704708B50A4600210AF019FC08BDF8B5194B1B78DBB2F9
:400D4000184E3478E4B2184F3D78EDB203F00701164A11701B090132137044F00303337045F003033B701822114B1A704023114A13700232137080220F4B1A7010230F4A6D
:400D800013702021033211702D3213700A2000F08BF93D7034704422094B1A70F8BD00BFCF010049F8460040F94600406E5800400D51004009590040005B0040285B004076
:400DC0007658004008B50AF0A9FB08BD38B50024364B1C80502202331A7002331C80582202331A70012202331A801823304A1370032502321580023213700B210232118099
:400E0000023213702B482C490422FFF7DBFF02222A4B1A7008224FF040231A7003F500731D70274B1B78DBB226490B70264B1A8041F25122023B1A8019250CE0234B1B787D
:400E400003F0010343EA440404F003044FF4F07000F002F9013D0DB1032CEFD115B90320FFF748FF1A4B4FF480721A8007221A70002218490A704820023108701A700222BF
:400E8000033B1A7004220A331A70134A137843F01F031370013A137843F001031370013A137843F08003137038BD00BF804000408A40004000410040700D004800430040B7
:400EC00008010049A146004022420040254200400440004006400040A2430040012807D8044B53F820201844017A13780B431370704700BF9CBF0000012808D8044B53F876
:400F000020201844017A137823EA0103137070479CBF000038B572B63B4A137843F00403137000240AE0394963001A1952000A44D068118AFFF7FAFE0134E4B2072CF2D937
:400F4000002410E03149A3001A1952000A4452F83C0F23445B000B445168B3F84420FFF731FF0134E4B2012CECD94FF090402849FFF7C2FE0A25274B1D70274A137843F089
:400F8000020313701032137843F002031370234C237843F040032370A2F58632513A137843F0100313701E481E490822FFF70AFF1D481E492A46FFF705FF1D481D490822BF
:400FC000FFF700FF1C481D490822FFF7FBFE1C481C490822FFF7F6FE1B4A137843F0080313701A4D61232B70FFF7F0FE81232B700122174B1A70FFF79FFE164821460E224B
:40100000FFF7E0FE38BD00BFE84600409CBF0000A80000488358004003500140A043004002510040440D0048C05100404C0D0048F2510040580D004812510040600D0048F7
:4010400022510040680D0048224300400048004004000840B04300400230800803D000BF01380046FCD17047EFF3108072B6704780F31088704700BF01BE704710B50446AE
:4010800005E0084B1868FFF7E7FFA4F50044B4F5004FF6D8034B586800FB04F0FFF7DCFF10BD00BF4881FF1F08B5034B1B7A03FB00F0FFF7D1FF08BD4881FF1F70B5044649
:4010C0000E46074B1D680F2802D90020FFF7D4FF04F00F0455F8240045F8246070BD00BF08ED00E070B504460E46074B1D681F2802D90020FFF7C0FF04F01F04103455F897
:40110000240045F8246070BD08ED00E038B504460D46072902D90020FFF7AEFF1F2C02D90020FFF7A9FF04F01F0000F1604000F564406D01EDB2057038BD00BF024A136852
:4011400043F002031360704710E000E008B5FFF7F5FF034A136843F00103136008BD00BF10E000E020F07F40014B1860704700BF14E000E0012805D1054A136843F00403F0
:4011800013607047024A136823F004031360704710E000E0024B1868C0F30040704700BF10E000E010B5FFF7F5FF01280BD107E0054B03EB84035B6803B19847013400E059
:4011C0000024042CF4D910BD4CA2FF1F0022014B1A60704718E000E008B5002305E00F4A02EB8302002151600133042BF7D90F200B49FFF763FF0120FFF7BCFF094BDB68A5
:401200000948A0FB03308009FFF7ACFFFFF7DEFF4FF40042054B1A6008BD00BF4CA2FF1FA51100004881FF1FD34D621000E100E008B5054B9B6923B9FFF7CEFF0122024BA3
:401240009A61FFF783FF08BD4CA2FF1F024B03EB80035868596070474CA2FF1F024B03EB80004068704700BF4CA2FF1F084A137843F0010313701032137843F0010313702D
:4012800002F64D32137843F001031370704700BFA3430040014B1870704700BF034F0040014B1878704700BF034F0040014B1880704700BF044F0040014B1880704700BFCF
:4012C000064F004008B5164A137803F0010313700232137803F0FC031370124B1A7802F0CF021A701A7842F030021A701A7802F0F0021A701A7842F00F021A700A4A137809
:4013000043F0010313704FF40860FFF7CFFF4FF40860FFF7D1FF0820FFF7BCFF08BD00BF004F00400B4F0040014F004008B5054B1B7823B9FFF7C6FF0122024B1A70FFF7D6
:4013400095FF08BD68A2FF1F024B1B68C3F88400704700BF08ED00E04001C0B2014B1870704700BF11E400E04FF40032014B1A60704700BF00E100E04FF40032014B1A6013
:40138000704700BF80E100E010B50446FFF7F4FF2046FFF7D9FF0020FFF7DEFFFFF7E4FF10BD00BF08B5FFF75FFE0A4A137843F0200313700C32137843F010031370013265
:4013C000137843F010031370FFF752FE00F05CF808BD00BF90640040014B1878704700BF6C640040014B1878704700BF6D640040034B1B7813F0040FFAD0024B1870704745
:401400006C6400404C64004008B501E00A4B1B780A4B1B7813F0200FF8D1FFF725FE084B1A7842F001021A701A7802F0FE021A70FFF71EFE08BD00BF5C6400406D640040D1
:401440009C64004008B50F22064B1A70FFF7DCFFFFF7C2FFFFF7C6FF0023034A13700132137008BD806400408C64004008B5054B1B7823B9FFF7E6FF0122024B1A70FFF717
:4014800091FF08BD69A2FF1F054A137843F0080313701032137843F008031370704700BFA2430040044A137803F0DF03400100F020001843107070472051004008B50A28B9
:4014C0000FD00C2802D0082806D102E04FF4805209E04FF4807206E00020FFF7CDFD002201E04FF480620021094B198042F2107303FB02F303F6C413064A82FB0302DB17B1
:40150000C3EBE223044A1360044B198008BD00BF58750020AD8BDB68507500205475002010B5FFF7A1FD04461E4A137843F0020313701032137843F002031370193A1378DE
:4015400043F0040313701032137843F00403137002F5AA521932137843F0030313700422114B1A70013B1A7802F0BF021A701A7842F003021A700822053B1A700222A3F585
:401580009753123B1A70094A137843F0080313700A20FFF789FD0122054B1A602046FFF767FD10BDAB4300400E5900402F5B004080E200E010B504460A280DD00C2802D0A6
:4015C000082804D101E0C42207E0442205E00020FFF752FDC42200E08422034B1A702046FFF76CFF10BD00BF0A59004008B5102000F050F800200721FFF788FD00200749F6
:40160000FFF770FD064A137843F0060313700C20FFF7D0FF0022034B1A8008BD91160000095900405675002008B5054B1B7823B9FFF7DCFF0122024B1A70FFF771FF08BD47
:401640006AA2FF1F024A137843F00103137070470859004010B5074B1B7813F0010401D10028F8D024B10120FFF71EFD014B1B78204610BD09590040034B1B88034A108852
:40168000181A00B2704700BFA25B004054750020704700BF034B1A7800F0F80010431870704700BF8A400040024A137843F080031370704774650040014B1870704700BFE7
:4016C00087650040014B1878704700BF67650040014B1860704700BF24650040014B1868704700BF44650040014B1860704700BF0465004008B501E0FFF7F0FFFFF7E2FFF5
:4017000010F0080FF8D108BD10B50B4C2046FFF7DFFF2046FFF7E8FFFFF7A6FC074A137843F010031370FFF7A3FCFFF7E3FF0120FFF7C2FF10BD00BFFF356E01976500407E
:4017400008B5054B1B7823B9FFF7DEFF0122024B1A70FFF7A9FF08BD6BA2FF1F014B1B689864704708ED00E04001C0B2014B1870704700BF02E400E00422014B1A607047D5
:4017800000E100E00422014B1A60704780E100E010B50446FFF7F6FF2046FFF7DFFF0120FFF7E2FFFFF7E8FF10BD00BF38B59DF81040651EEDB2032D4AD80138092826D841
:4017C000DFE800F00525250525250D15251D0F2B02D9214800781BE02048007818E00F2B02D91F48007813E01E48007810E00F2B02D91D4800780BE01C48007808E00F2BD7
:4018000002D91B48007803E01A48007800E0002040B201EB401101FB02F2D20B91B20D2B0BD8C3F10E0192B20A4191B2124A02EB8402013302F8023C05E00F4B03EB840357
:401840000F2203F8022C013C0B4B23F8241038BD0020FFF711FC38BD180100491C010049190100491D0100491A0100491E0100491B0100491F0100496CA2FF1FF8B50746CD
:40188000FFF7F2FB06460D4D2B7843F003032B700B4C237843F0030323700A4B1F700320FFF702FC2B7803F0FC032B70237803F0FC0323703046FFF7DBFBF8BDF8460040AA
:4018C000F946004092580040F8B504460022C14B1A7401285DD13822BF4B1A70042202331A70062201331A70002501331D7001331D703F2201331A7002331D7001331D7033
:4019000001331D7001260A331E70502203F527631A700A2201331A702C2201331A7001331D70442203331A70482201331A7001331E7002331E70112201331A70192201338C
:401940001A70972201331A705220FFF797FF5822A24B1A7001331D70052205331A70022201331A7001331D7001331D70284600F0ADFB43F233329A4B1A600820314600F0DB
:40198000A5FA2520314600F025FB1D209549FFF7A9FB022C5DD138228F4B1A70042202331A70062201331A70002501331D7001331D703F2201331A7002331D7001331D70D9
:4019C00001331D7001260A331E70502203F527631A70272201331A702C2201331A7001331D70552203331A705A2201331A70052701331F7002331E70112201331A70192293
:401A000001331A70972201331A704420FFF736FF5822724B1A7001331D7005331F70022201331A7001331D7001331D70284600F04DFB4FF47A426A4B1A600820314600F0D2
:401A400045FA2520314600F0C5FA1D206649FFF749FB032C5DD138225F4B1A70042202331A70062201331A70002501331D7001331D703F2201331A7002331D7001331D7097
:401A800001331D7001260A331E70502203F527631A70272201331A702C2201331A7001331D70552203331A705A2201331A70052701331F7002331E70112201331A701922D2
:401AC00001331A70972201331A704420FFF7D6FE5822424B1A7001331D7005331F70022201331A7001331D7001331D70284600F0EDFA4FF47A423A4B1A600820314600F034
:401B0000E5F92520314600F065FA1D203749FFF7E9FA042C5DD138222F4B1A70042202331A70062201331A70002401331C7001331C703F2201331A7002331C7001331C705B
:401B400001331C7001250A331D70502203F527631A70272201331A702C2201331A7001331C70552203331A705A2201331A70052601331E7002331D70112201331A70192218
:401B800001331A70972201331A704420FFF776FE5822124B1A7001331C7005331E70022201331A7001331C7001331C70204600F08DFA4FF47A420A4B1A600820294600F0A7
:401BC00085F92520294600F005FA1D200849FFF789FAF8BD6CA2FF1F004E0040945800405C7500208D1E0000911E0000951E0000991E00002DE9F04182B0394D4FF0010826
:401C000085F80080374E00247474102000F04CF9102000F0CDF91D200721FFF777FA0427314B1F7001331C7007331C702F4A137843F0180313702E4B1C7003F2F5231C70D0
:401C400001331C700A22A3F209331A7001331C7002331C705B2205331A705E2201331A7004331C701422A3F68C231A70CDF80080022048F6F0514FF400421023FFF796FD2D
:401C800002230093204649F2DA014FF400421023FFF78CFD03230093204649F2DA014FF400421023FFF782FD0097204649F2DA014FF400421023FFF779FD2B7806EB830306
:401CC00013F8022C0B4B1A702B78013B36F82320094B1A802878FFF7F7FD02B0BDE8F0815881FF1F6CA2FF1F96580040075B0040935800400E4E00400C4E004070B5FFF7CC
:401D0000B3F906462A4B1B782A4B1A7842F001021A701A7842F010021A7010331A7842F001021A701A7842F010021A70224D2B7843F002032B70214C237843F002032370D1
:401D40001F4A137843F0030313700320FFF7ACF92B7803F0FD032B70237803F0FD032370184A137843F0060313707A22164B1A70164A137843F0010313701032137843F0CB
:401D8000010313700F3A137843F0010313701032137843F0010313704FF000530C4A1360A2F5C07213603046FFF762F970BD00BF5881FF1FAA430040F8460040F94600401C
:401DC000915800407758004082580040A143004080E200E008B5084B9B7C4BB9064BDB7C13F0FF0F01D1FFF705FF0122024B9A74FFF784FF08BD00BF6CA2FF1F024A1378FD
:401E000043F0010313707047004E0040094B1B7C13F0FF0F03D0074B5B7CDBB203E0064B1B7803F00103012B01D00028EED01846704700BF6CA2FF1F014E00400E4B1B7802
:401E400003F00303012B03D80C4B188880B209E00A4A12780A49087842EA0020032B01D1084B1B78084B1B7C13F0FF0F02D00022054B5A7400B27047144E0040104E0040B7
:401E8000114E0040124E00406CA2FF1F704700BF704700BF704700BF704700BF014B188880B2704780400040034B1A7800F0F80010431870704700BF82400040024B187812
:401EC00000F00700704700BF8240004070B505460E46FFF7F3FF0446FFF7E0FF854256D02B4B1B7803F0010294B900B185B938B9284B1D80284A137803F0BF03137070BD1D
:401F0000254A137843F040031370224B1D8070BD22B3002321490B7001240F310C7004310B700C390B7803F07F030B701A4B1B7813F0080F00D08DB9194B18800721013BC9
:401F40001970164B1B7813F0010FFAD110490B7803F0FE030B700021104B19700C4B1B7813F0010F0DD00E4B1D800EB1032200E001220A4B1A70094B1B7813F0010FFAD15B
:401F800070BD044B1D8002490B7813430B7070BDA243004080400040824000400140004002400040014B188880B2704700410040034B1A7800F0F80010431870704700BFA3
:401FC00002410040024B187800F00700704700BF0241004070B505460E46FFF7F3FF0446FFF7E0FF854256D02B4B1B7803F0010294B900B185B938B9284B1D80284A1378A0
:4020000003F0BF03137070BD254A137843F040031370224B1D8070BD22B3002321490B70012413310C7004390B7008390B7803F07F030B701A4B1B7813F0080F00D08DB9BB
:40204000194B18800721013B1970164B1B7813F0010FFAD110490B7803F0FE030B700021104B19700C4B1B7813F0010F0DD00E4B1D800EB1032200E001220A4B1A70094B6B
:402080001B7813F0010FFAD170BD044B1D8002490B7813430B7070BDA14300400041004002410040014000400240004010B5002404E02046FEF720FF0134E4B2012CF8D98F
:4020C000FF22014B1A7010BD5981FF1F10B50446FFF7ECFF2046FEF701FF014B1C7010BD5981FF1F08B5FEF7BFFF0A4A137843F020031370013A137843F010031370FE3A4D
:40210000137843F010031370FEF7B2FF00F064F808BD00BF96650040014B1878704700BF65650040014B1878704700BF67640040034B1B7813F0040FFAD0024B1880704784
:40214000656500404664004008B501E00E4B1B880E4B1B7813F0200FF8D1FEF785FF0C4B1A7842F001021A701A7802F0FE021A7001331A7842F001021A701A7802F0FE02B2
:402180001A70FEF775FF08BD56640040676400409664004008B51F22064B1A70FFF7D4FFFFF7BAFFFFF7BEFF0023034A1370FE3A137008BD866500408565004008B5054B4F
:4021C0001B7823B9FFF7E6FF0122024B1A70FFF789FF08BD80A2FF1F054A137843F0100313701032137843F010031370704700BFA2430040024A137843F08003137070477D
:4022000073640040014B1870704700BF81640040014B1878704700BF61640040014B1A681860704722640040014B1868704700BF42640040014B1A68186070470264004033
:4022400008B501E0FFF7F0FFFFF7E2FF10F0080FF8D108BD10B50B4C2046FFF7DFFF2046FFF7E8FFFEF700FF074A137843F010031370FEF7FDFEFFF7E3FF0120FFF7C2FF8D
:4022800010BD00BFFF6BDC029164004008B5054B1B7823B9FFF7DEFF0122024B1A70FFF7A9FF08BD81A2FF1F014B1B685864704708ED00E04001C0B2014B1870704700BF14
:4022C00001E400E00222014B1A60704700E100E00222014B1A60704780E100E010B50446FFF7F6FF2046FFF7DFFF0720FFF7E2FFFFF7E8FF10BD00BF38B50222114B1A7043
:4023000081220E3B1A70082202331A700F2511331D70002401331C704FF400420A4B1A6028460721FEF7F2FE28460849FEF7DAFE1022074B1A70074B1C70074B1C70074BDE
:402340001C7038BDD649004080E100E0AD2300006475002075750020687500206975002008B5FEF781FE064A137843F0040313701032137843F004031370FEF779FE08BDEA
:40238000A543004008B5074B1B7823B9FFF7B4FF0122044B1A70FFF7E3FF4FF40042024B1A6008BD82A2FF1F00E100E038B5A44B1C78E4B2A34B1B7813F0400F00F0378165
:4023C00014F0010F00F01B819E4B1B78453B052B00F21281DFE813F006008200100110010600DE0004F0DF0504F00A04082C42D1944B1B78DBB2452B35D1934B1B7813F02A
:40240000FF0F10D0914B1B681B78DBB2904A137004228B4B1A7001228E4B1A704622894B1A702C46EBE08C4B1B7813F0020F0DD08A4A137843F00A0313706022814B1A706E
:402440004FF40042864B1A602C46D8E0854A137843F0100313701022834B1A700422023B1A702C46CBE00022754B1A704A22754B1A702C46C3E00A2C2BD1784A137843F0C2
:40248000A0031370744B1B7813F0020F14D06D4B1B7813F0080F01D0092300E00A236F4A11780B4313706022664B1A704FF400426B4B1A602C46A2E06A4A137843F010033F
:4024C00013701022684B1A700422023B1A702C4695E00020FEF7D0FD2C4690E014F0020F35D15C4B1B78584A1278DBB2934210D2584A1378DBB255490968CB5CDBB2544973
:402500000B7004214E4B197013780133DBB2137075E0514B1B7813F0020F0CD04F4A137843F00A0313706022464B1A704FF400424B4B1A6063E04B4A137843F01003137051
:402540001022494B1A700422023B1A7057E0424B1B7813F0020F0CD0404A137843F09A0313706022374B1A704FF400423C4B1A6045E03C4A137843F01003137010223A4BA5
:402580001A700422023B1A70344A137843F09003137034E0354A1378DBB2354908682C490978C9B2C15413780133DBB213701378304A1278DBB2934203D21022204B1A7077
:4025C0001DE0254B1B7813F0020F0CD0234A137843F00903137060221A4B1A704FF400421F4B1A600BE01F4A137843F0100313700022134B1A7002E00020FEF73DFD14F070
:40260000200F1CD00F4B1B7813F0080F01D0012300E00223114A11780B431370114A137803F0EF0313701022064B1A7038BD054B1B7813F0100F02D11022024B1A7038BDA3
:40264000D7490040647500206B75002070750020D849004069750020747500207575002080E100E0D6490040D9490040687500206C7500206A7500201A4B1B78DBB2102BCB
:4026800029D1194B1B7813F0080F26D14FF40042164B1A604000C0B229B140F001004922104B1A7002E045220E4B1A70104B1870012201331A700F4B1B7813F0010FFAD0F1
:4026C0000C4B1B7803F00A030A2B08D11022054B1A700320704702207047012070470020704700BF64750020D949004080E100E0D8490040D74900400A4B1B7813F0040F5A
:402700000ED01023074A13700421023A1170064A1370064B1B7813F0210FFAD00020704702207047D949004064750020D7490040114B1B7813F0040F1BD0104B18700422BA
:40274000013B1A7046220E4B1A700E4B1B7813F0010FFAD00B4B1B7813F0020F04D16022074B1A70002070476022054B1A70032070470220704700BFD9490040D8490040E7
:4027800064750020D7490040002343637047FFF7FBBF2DE9F041044688B008460D461646984600F06AFB10F0010F30D000213C22204601AF01F0FAFD384600211C2201F03C
:4027C000F5FD656395F859300BB304F11C050E9B30462946CDF81880079300F093FBB0B92846394600F072FB08B1012011E09DF804202270029A6260059A2261039AA2604A
:40280000049AE260069A6261079AA26101E04FF0FF3008B0BDE8F0817FB504461D4616466AB163B1084603A900F01CFA014630B12046039A33460095FFF7ABFF01E04FF02F
:40284000FF3004B070BD08B5FFF7E6FFC0B208BD094B10B5D8689A68002308E0114652F8084B1CB901230B60486810BD01338342F4D3002010BD00BF78750020084B30B58D
:402880000022DC689B6808E05D6819460833854202D100230B6030BD0132A242F4D330BD7875002001230373704700230373704710B1002282720260704718B1027B0AB1E9
:4028C000013A02737047000038B501F049FE20B3124C4200E260000101F036FE238AA060E068584301F030FEA568E168228A002304E005EBC3046060013380188B42F8D3DE
:40290000102001F021FE054C6061282001F01CFEA37CA06143F00203A37438BD7875002038B510220D460021044601F03FFDFFF78FFF08B9013038BDA0604FF0FF3300207B
:4029400065602360A07338BD38B5837A044643B1056801F0F9FC2846FFF7AFFF2046FFF7A7FF002038BD08B50368827A03B19B6822B11BB1FFF7E8FF002008BD012008BD41
:4029800008B901307047FFF7EEBF000038B5104B9C69217B59B921606160A16004F11000142201F003FD237B013323730DE0656A45B9282001F0B2FD606218B12946282213
:4029C00001F0F4FC646A002CE3D1204638BD00BF7875002038B50E4B5C69A17AE56839B92046102201F0E2FC0123A372E5600CE045B9102001F092FDE06018B12946102293
:402A000001F0D4FCE468002CE7D1204638BD00BF787500202DE9F74F06460020884691469B469DF830A09DF83470FFF7AFFF054608B9044610E0FFF7CDFF044660B180F813
:402A40000B900560AE604046214652463B46CDF800B001F00DFA30B12046FFF729FF2846FFF72BFF00242046BDE8FE8F2DE9FF410C461F4604A9002341F8043D15469DF8DF
:402A8000286000F0EFF88046B8B1039B0BB11B789BB1404600F0F1F900280EDD14F0150F01D0032809D1039939B1404622462B4600970196FFF7AEFF00E0002004B0BDE8CF
:402AC000F08100002DE9F3410646884600240E4D404655F83410E70001F09EFC10B9002C04DA0DE001340F2CF1D109E07D19A87929790090EA796B793046FFF7B7FF00E0EC
:402B00000020BDE8FC8100BFECBF0000FFF7DABF10B5437B04460BB1012010BD40682168A268A37B01F0E7FD10B10120607310BD207310BD10B5437B044663B9037B53B168
:402B400040682168A268A37B01F0D5FD08B1012363730023237310BD036870B5994204460D46164607D0037B0BB1FFF7E3FF00232560A673E37370BDFFF7DCBF10B50446CF
:402B8000FFF7D8FFA068BDE81040FFF777BE01230373FFF7CFBF10B50446407B08B1012010BDE37B5BB960682168A268A37B01F038FD10B10120607310BD0122E27310BDB9
:402BC00030B592B188B1857A046875B16CB190F80BC01CF0080C04D14FF6FB720281604630BDBDE8304001F087BA002030BDFFF7E7BF08B5436813B94FF0FF3008BD984780
:402C000008BD0000F8B50C4617460023144D01E0ED6D01338342FBDB2B6828791B68984706460CB92046F8BD01F003FC0530B84214DC22460020335C013223540130315C95
:402C40000029F8D113464FF03A0C03F801CB2C7903303034547083F801C09970F8BD00BF947500202DE9F0470F463A21064601F002FC044610B93446174D27E00378C6EB7F
:402C8000000A5BB114F8013F43B162783A2A05D1A3F130085FFA88F8023401E04FF000080D4D2B6828791B689847814601F0C1FB504508D148463146524601F0C2FB10B9C1
:402CC0002B79434502D0ED6D002DEAD107B13C602846BDE8F08700BF94750020F8B5174C064694F85B10E56D69B960220127204601F05CFB84F85B70E5653046FFF779FF3A
:402D000000280EDA18E045B9602001F007FCE06518B12946602201F049FBE46D002CE0D10AE0074B2660DA6F0132DA670323207184F85B7084F85A302046F8BD94750020F0
:402D400078750020FFF7CABFA1F57C7CBCF1030F2DE9F04106460C4615461F460BD901F02EFC002803DA4FF0FF30BDE8F081304621462A463B46BDE8F04101F0C3BC000039
:402D800010B590F8593004469BB1114B5B690EE09A7A5AB11A684AB19168A14206D1002199721960117B09B101391173DB68002BEED100221346204640F2F131FFF7C4FF86
:402DC000002384F8593063712361636110BD00BF78750020FFF7D4BF70B5044601F0EFFB20B92046BDE87040FFF7F4BF94F8593073B1104B5D6906E0AB7A1BB12B689B681F
:402E0000A34213D0ED68002DF6D1204601F03EFA0022134620464FF47C71FFF795FF002384F8593063712361636170BD2846FFF78BFDE7E77875002010B50021FFF712FF32
:402E400018B1BDE81040FFF7C7BF10BD38B504460D4601F0B4FB08B9013838BD204601F0C1FB204601F072FD204600F02BFD08B184F8595094F8590038BD90F8593023B936
:402E800090F85A1009B1FFF7E1BF1846704710B590F8592004463AB931B1FFF7D7FF002802DC4FF0FF3010BD94F8590010BDFFF7EEBF10B50021FFF7D5FE08B9013010BD06
:402EC0000321BDE81040FFF7F2BF00007FB50E46054610B94FF0FF350FE0A9696846FFF71FFD074B28461B6831461B686A469847054668466C46FFF741FE284604B070BD47
:402F00005C81FF1FF0B58BB004AD07460C4628468969FFF705FDA66909AB0093304629463A4608AB00F042FFF0B1089801F081FA099B88B10093102301933046103B29465B
:402F4000089A029300F0DAF870B1C37A13F0100F0AD000F01EFF00E018464FF000036061A3832382002400E0012404A8FFF706FE20460BB0F0BD0C2802D0102805D102E052
:402F800001EB510070474800704788007047036840689B685B6AB0FBF3F0704710B5046D836CE4B199421AD3E318994217D2013B99420CBF4FF0FF31013172B190F83630EA
:402FC0000C2B02D0102B05D102E00905090D03E089B201E021F070411160012010BD002010BD40F6F473984201D80C2070474FF6F473984294BF102020207047027F836805
:40300000023902FB01307047431EDBB21F2B13D92F2811D007D826280ED002D8222809D10AE02A3804E03A2804D33F2804D95B38022801D90120704700207047034638B3E4
:403040000B2A01DD0B2200E0013A00201CE0082809D191F808C0BCF1200F0DD04FF02E0C03F801CB08E038B991F800C0BCF1050F02D1ACF1200C04E011F800C0BCF1200F7D
:4030800001D003F801CB01309042E0DB00221A7070472DE9F04788B005AE04460D463046114600229A469DF84490BDF84C80BDF8507000F01DFD08B1002413E020462946A5
:4030C000524600F00EFE044660B1129B31460093109A4B46CDF80480029700F0C5FF2846FFF7E0FB204608B0BDE8F08710B59DF80C400394BDE8104000F0D8BD2DE9F04FD4
:40310000144E87B0109DDDF848809DF84440376800950194CDF8088005937F68934682468946B84732680C4BDDF814C09A420DD060B9504649465A46634610951194CDF8A6
:40314000488007B0BDE8F04FFFF7D0BF07B0BDE8F08F00BF5C81FF1F94C0000070B5C37A04460B7010300D4601F0B4F9064604F10E0001F0AFF940EA0640686004F11200FF
:4031800001F0A8F90004A86004F1180001F0A2F9064604F1160001F09DF940EA0640E86004F11C0001F07DF9286170BD2DE9F845038A04460E46924687692BB907F11800DA
:4031C0002146626900F064FC38465146224600F0E7FC0546204600F065FCD5B12B78C3B1E52BF1D095F80B80B8F10F0FECD018F00808E9D170692946B269FFF71FFF28463B
:403200003146FFF7ABFF238A404601332382BDE8F8854FF0FF30BDE8F8850222FFF79CBC2DE9F04790F8366005460C46304611469146FFF7A0FEB5F81E80AB6A20FA08F88D
:403240009845824602D30020BDE8F0876B8E05F118079844204641463A46FFF7DEFF2046FFF799FC18B14FF0FF30BDE8F087AA8BA168013A0AEA020A1FFA8AFA92450AEB48
:4032800001031AF8015001D0013309E0204608F101013A46FFF7C1FF2046FFF77CFCA36818780C2E45EA002009D0202E0FD15D7840EA05409D7840EA0560BDE8F08719F016
:4032C000010F02D00009BDE8F0870005000DBDE8F08700002DE9F34190F83630144603FB02F7828B8846D200511E0F40D71B0546B7FBF3F7002618E00E4B93F88030022BED
:4033000005D12846214601AAFFF748FE28B9284641462246FFF784FF0190019B0134A34205D10136B6B2013F1C46002FE4DC3046BDE8FC81787500202DE9F34105460E4669
:40334000144698461F681CE0114B93F88030022B05D12846214601AAFFF720FE28B9284631462246FFF75CFF0190737B0BB100240BE0AA6B019B0132934204D81BB1013FFA
:403380001C46002FE0D1C8F800702046BDE8FC817875002073B504680E4623681BB9FFF7F6FD013039E0FFF7F2FD236998423CBF4FF0FF3323612369B3F1FF3F04D1226884
:4033C000013323616261E3832169E28B451A954234BF2B4613463BB16069C918C018D21A60612161E283ED1A0DB9284615E002AB43F8045D31466269A068FFF79DFF6061EA
:40340000019B21690246C91A4D19256123B9A0683146FFF75FFFE08301987CBD13B502AC44F8043D2346FFF787FF019B002B18BF00201CBD2DE9F0410746884615461E46DB
:403440000024384641462A460123FFF7E7FF30B1BA6B0134944201D80546F2E7002406B134602846BDE8F0812DE9F74F04460D461E461746002A00F0B98090F83600114690
:40348000FFF779FDB4F81EA0A36A20FA0AFA9A45814680F0AB80638E04F118089A44284651464246FFF7B9FE2846FFF774FB6B7B002B40F09B80A38BAA68013B09EA030902
:4034C0001FFA89F303EB020926B9216C8F4203D2276401E0791C216494F8361010290AD0202911D1484600F0DCFF31460746484600F0E2FF4EE0484600F0ECFFB1B20746D3
:40350000484600F0E3FF45E0284600920193FFF7C9F9009A019B17F0010F13F802B01BD00BF00F0141EA06119954A28B013A934202D009F1010309E028460AF101014246A2
:40354000FFF76BFE2846FFF726FBAB681F7832093F0147EA1B171CE09E54A28B013A934202D009F1010309E028460AF101014246FFF753FE2846FFF70EFBAB681A78310A74
:4035800002F00F0701F00F0122F00F024BEA07270A431A702846FFF785F994F83630202B18D1B4F84620AAB9B4F844102846FFF7D3FA2846FFF7EFFAA8684FF0FF3100F536
:4035C000F47000F079FF2846FFF76CF94FF00103A4F84630E36BB3F1FF3F09D00FB10133E3632EB1E36B013BE36301E0012000E00020BDE8FE8F6FF07043FFF735BF70B59A
:40360000036D04460E4693B1002506E0AA1820463146531CFFF728FF0135236DA26C013B9D42F3D320463146AA18FFF7E4FF0023A3642365E364636570BD70B506460D4623
:403640001C460AB1FFF710FF304629462246BDE87040FFF7D0BF00002DE9F84504460E4615461F46002B36D01C4B93F88030022B31D190F8368011464046FFF77CFCB4F819
:403680001CA00AF1FF3A2AEA000A4FEACA0ABAFBF8FAAA44A8460EE0204631464246FFF7BFFD50B9A36C0BB9C4F84880E36C08F101080133E364D045EED9E36C5BB1676538
:4036C0003B685A6922B1204631462B46FFF7CCFE236D01332365BDE8F88500BF787500202DE9F8459846274B054693F880300F46022B1646846B19D1436D984503D0C36CDA
:403700000BB1FFF77CFFB8F1000F0FD06B6D43450CD12B6DEA6C9A4204D9AC6C1C1901332B652CE028463946FFF769FF012E04F1010A01D9564505D92E6C012E01D95645B9
:4037400000D902263446284639462246FFF768FD50B101345445F6D902240DE0284639462246FFF75DFD30B92846394622464346FFF772FF03E00134B442EFD30024204640
:40378000BDE8F88578750020F8B507460E461546FFF7A6FF044628B1384631462A462346FFF74BFF2046F8BDB2F1FF3F73B504460D4614D0561A013611D0FFF7DDF9084B19
:4037C00000211A8AA06800F0F1FD022300936068A3682946324600F069FF0023E3737CBD787500202DE9F84F984690F8363004460C2B0D4616465AD04FF0FF3AD1463CE067
:4038000094F836003146FFF7B6FBB4F81CB0678E0BF1FF3B10EA0B0BE38B1DD1D840013F3F18022228463946FFF796F9A38BAA689B0852F80B1079B9013B0BF1040BF8D1CA
:403840003BE0494628465246FFF7AEFFB946BB462846FFF72AF8DA462946324601232046FFF7DCFD29460746324620460023FFF7FBFD2FB108F1FF383E46B8F1000FBFD188
:40388000284649465246FFF78FFF13E02946324601232046FFF7C2FD29460746324620460023FFF7E1FD2FB108F1FF383E46B8F1000FEBD14046BDE8F88F0AF1010B5F45E0
:4038C000BFD1C5E72DE9F8450546FEF7C1FF044608B90546D0E0284600F029FF684E338A834208D338B10021284622460B4600F098FE002804DA2046FEF7C0FF0025BBE003
:4039000004F5FF7000F0E6FD4AF65523984240F0AD8004F10B0000F0DDFD10F47E4F074600F0A480338A8342C0F0A080237C022B40F09C8094F80D80B8F1000F00F0968020
:403940000021402205F1180000F030FD04F1130000F0C0FD064620B904F1200000F0A1FD064604F1160000F0B5FD824680B904F1280000F0AFFD10F08F0F77D104F124006A
:4039800000F08FFD824604F12C0000F08AFDE862022385F83530C5F828A0AE6185F8348004F10E0000F096FD688604F1110000F091FD95F835206B8E288602FB0A3A7A09D0
:4039C00092B2B0FBF2F25244AF832A62092301219940B94201D1EB8302E00133102BF6D108FB07F7B61AB6FBF8F6AE636F623046FFF7F7FA202818BFC5F82CA04FF0FF335E
:403A0000202885F83600EB6332D104F1300000F061FD00230146A5F844002246284600F000FE002822DB204600F03BFD804604F5F27000F036FD074604F5FE7000F031FDEF
:403A4000104B984514D1104B9F4211D10F4B98420ED104F5F67000F024FD286404F5F47000F01FFDB04203D8E86301E0002500E001252046FEF702FF2846BDE8F88500BFC4
:403A8000787500205252614172724161000055AA00238B60837F202B01D102B942694A600A60704783680133836070472DE9F0410C46202105461F469DF818604FF0000839
:403AC00000F074FC10E014F8080036B9E52804D1B8F1000F01D1E03802E000F0C5FCC0B205F8080008F10108B845ECDBBDE8F0812DE9F74506460D4608462849002A14BF5C
:403B000092464FF0FF3A00F087FC804650B930462946022200F032FEB01C2021092200F045FC37E04FF0FF34002715F80780B8F1000F01D0574505D1B4F1FF3F08BF3C46F6
:403B400064B925E04046FFF75FFA08B3B8F12E0F08BF3C4601370D2FE7D119E0082C17DC3F1B042F14DC30462946082223464FF00008CDF80080FFF799FF0123611C0093D5
:403B800006F10800691803227B1EFFF78FFF01E04FF001084046BDE8FE8500BFA4C000002DE9F74FD2F808B0436A4FEA4B18B8FBF3F8D368054698450E461446D2F8009019
:403BC00001D20023D360B5F81EA0E368AAF1050A0BB9D4F804902BFA0AF7B9F1000F17D095F83420B8EB0303019206D04A4628463146FFF713FC814640B3494605F118008E
:403C0000FFF7FCF9019B591E01EA0707C11906E02B8E43FA0AF39F4218D2E96A79183046C4F80090C4F80C800122FEF795FF3046FEF7B1FF50B9013000FA0AFAB3680AF10C
:403C4000FF3A0AEA0B0B03EB4B1000E00020BDE8FE8F2DE9FF4107460E4601A811461A460A9D9DF82C40FFF743FFC8B9384631462A46FFF795FF8046A0B1037883B101A96F
:403C80000B2200F083FB38B998F80B3004EA0302A24201D1082B05D12846FFF703FFE5E74FF00008404604B0BDE8F0812DE9F04587B002AF04460E46154698469DF83CA0B7
:403CC00039460E9A1830FFF7E3FE204631462A4643460097CDF804A0FFF7BBFF07B0BDE8F0852DE9F04500F1180785B005460C46384669469246FFF7CBFE284621466A46B1
:403D0000FFF74EFF06466846E846FFF7CBFE002E37D1BAF1000F02D12B8E002B35D12146009A00232846FFF785FB2146024600232846FFF729FD80462046FEF728FFB8F157
:403D4000000F22D0AA8B0021A06800F02FFB38464146FFF753F995F8347000257E1E361808E0314620460122FEF7F6FE2046FEF7CFFE013E01357B1BB3F1FF3FF1D1A6688D
:403D800003E033780BB1E52BB7D1304605B0BDE8F08538B504461A3000F09CFB054604F1140000F097FB45EA004038BD2DE9F0451D4685B007460E462A6010465C219046E3
:403DC00000F059FB4FF0000A0446A04508D108F10108C5F8008040465C2100F04CFB044694B1C8EB0403002B0EDD10220192103A0292384631464246CDF800A0FFF77EF964
:403E000070B1FFF7C6FF824628685C2100F033FBA04604460028D8D10C9B0130C3F800A005B0BDE8F085F8B505460C461E461746DAB16FF01A0313700846FEF733FD16B9D9
:403E40004FF47A7608E007F11C0000F02AFB6B6A5E1E3618B6FBF3F63846FFF79AFF2146024633462846FFF7BDFC607BF8BD00002DE9F04FD1F8008093B0D8F808700BAD02
:403E8000044608930E464FF0FF333946284609920F939DF870A0FEF743FD10AB009338462946224611ABFFF781FFD0B1F27A109B07920FAA00930292002338462946119AB3
:403EC0000193FFF71BF9044680B1C37A13F0100F07D10D9BDDF82CB0C3EB00094FEA691906E02846FEF74AFE0125A3E083468146099B002B3CD0002C33D0524B5D6912E07E
:403F00002B687BB1AA7A6AB19A8B4A450AD19A695A4507D19B68BB4204D14FF6F772328100257EE0ED68002DEAD10DF12C0C6146384622460123CDF818C0FFF774FFDDF8C2
:403F400018C018B14FF0FF3333816AE03E4B1B68DC6824B138466146109A0F9BA0472C4606E0BAF1000F03D1089A002A44D065E0089BEBB1CCB1E37A13F0010F0BD0079AF9
:403F800012F0150F07D04FF6FA733381BAF1000F01D1012500E000252046FFF7FAFE074604F11C0000F07DFA29E0BAF1000F45D0BAF1010F01D000251BE0ECB905F038FD7B
:403FC000214B20221B68019282B2000C03920490009402949D6838460BA9119A109BA84750B10D9ADDF82CB0C2EB00094FEA6919254628462F4602E00125002007464FF022
:40400000FF33C8F81030C8F818B0A8F81C90079AC8F8040012F0010308BF1846C8F800707060B6F908300BA835EA230528BF0125FEF7A4FD284613B0BDE8F08F0125504655
:40404000DCE700BF787500205C81FF1F70B505460C461A3089B200F039FA05F11400210CBDE8704000F032BA2DE9F0470446BDF824700D469146002120229A46BDF828605A
:40408000DDF8208000F092F90B222046294600F075FB04F10E00394684F80BA000F016FA04F11000314600F011FA04F11600394600F00CFA04F11800314600F007FA204633
:4040C0004946FFF7C3FF04F11C004146BDE8F04700F0F2B907B5426803460AB910460AE081680020009048681968DB6800F0BCFA003818BF01200EBD2DE9F04F0368B0F9A1
:40410000085095B0044689469F68002D40F0B78041685868814203D34FF0FF312181AFE0411A8A4228BF0A46029222B94FF0FF322281029DA4E01B68002B00F0A08039464C
:4041400010AE0CA8FEF7ECFB39463046FEF7E8FBD4F800B0029ADBF80870AA4607F118030693796A4FF0FF330591099508930A96049220460CA9FFF70DF900286ED1DBF87B
:404180001030059901334B43626804999B1A994228BF19460391BB8BDBF81410013B134006980193FEF72AFFF98B656897F8342035FA01F1013A019B02EA0101CDF81CB0C7
:4041C00000EB01081E46BB46BBF81C30039A9D1B954228BF15469D4211D010AF384641460022FEF7B9FC3846FEF7D5FC002835D11299484671182A4600F0C0FA12E0099BC5
:40420000089A9A1890450BD008A8FFF763FF00283AD10123CDF820800993CDF82C9001E001330993049B03995B1B04936368A9445B19491BAA446360039103D008F10108F6
:404240000026C1E7049A5F46DDF81CB0002A90D108A85546FFF73EFFB0B900E05546029B9D4205D0B4F9083013B94FF6F97121810CA8FEF783FC10A8FEF780FC00E00025F6
:40428000284615B0BDE8F08F0025EBE77FB590F836300446202B22D1B0F84630FBB121466846FEF73DFB6846B4F844100022FEF753FC68466D46FEF76EFC68B9029EE16B19
:4042C00006F5F47000F0F8F806F5F670216C00F0F3F86846FEF7E6FA6846FEF74FFC7FBD2DE9F041836804460D4608460122A1699E8BFEF731FC2846B4F81C80AF68FEF7B2
:404300004AFCF8B9013E06EA4816B6B2BE1906F11C00616800F0D0F821683046FFF796FE05F086FB0446A1B206F1160000F0CEF806F11800210C00F0C9F82846BDE8F04196
:40434000FEF725BCBDE8F0817FB50668B0F90830B568C3B9C37A13F0110F14D029466846FEF7DEFA30466946FFF7BAFF064B6C4693F88030022B03D128466946FFF73FF9A9
:404380006846FEF7FBFB7FBD7875002010B5002308E0C45C11F803C0013A0133644501D0012010BD002AF4D1104610BD70B5034602E003F8011C013A1C4622B103F00305A3
:4043C0000133002DF5D193081ED04FF001354D4308E044F8105C44F80C5C44F8085C44F8045C043B032BA44604F11004F1DC1C46002603E04CF80650013B0436002BF9D1FB
:4044000002F003020CEB8404002302E0E154013A0133002AFAD170BD002310F803C0CA5C624501D0012070470133002AF5D110467047002300E00133C25C002AFBD11846FD
:40444000704710B500230BE0C45C11F803C0644501D0012010BDC4186478013314B1013A002AF1DC002010BDA0F16103192B98BF00F0DF007047C9B203E00BB91846704741
:40448000013003788B42F8D1704742780178431C42EA01205A789B7842EA002043EA002070478378C27803EB0222437803EB0222037803EB0220704703460A0A03F8011B25
:4044C00042700A0C090E5A70997070470170090A417070474278037843EA022070470000094A0A4BC11C10B5146821F0030118680919814201D9002010BD11609A685868F2
:40450000013220189A6010BDFC75002084A2FF1F08B5FFF7E5FF00B9FEE708BDFFF7E0BF30B1044A9368013B93600BB9024A1360704700BF84A2FF1FFC750020014B5860BA
:404540001960704784A2FF1F38B50546FFF7E0FF002104462A46FFF729FF204638BD000010B5084CA37C0BB1002010BD4FF40073238205F04FFAA37C012043F00103A3745E
:4045800010BD00BF7875002008B583680BB10020984708BD08B583680BB10120984708BD10B504680079A468A04710BD37B59DF81850046800790095E468A0473EBD08B559
:4045C000036800799B69984708BD036810B55B69044623B10079984708B1002000E00120607110BD10B5437904460BB9FFF7EDFF607910BDF7B504461F460E461546FFF736
:40460000F1FF2046FFF7C6FF2A463146012320460097FFF7C5FF05462046FFF7B5FF2846FEBD10B504690919BDE81040FFF7E2BF2DE9F341044615461F460E469DF8208066
:40464000FFF7D0FF2046FFF7A5FF2B4631463A462046CDF80080FFF7A3FF05462046FFF793FF2846BDE8FC8130B504699DF80C5009190395BDE83040FFF7DABFF7B504466A
:4046800015461F460E46FFF7ADFF2046FFF782FF0123009331462B463A462046FFF786FF05462046FFF770FF2846FEBD30B504699DF80C5009190395BDE83040FFF7DEBF83
:4046C00073B504460E461546FFF78CFF2046FFF761FF00232A460093314601332046FFF765FF05462046FFF74FFF002D14BF4FF0FF3000207CBD10B504690919BDE81040C6
:40470000FFF7DEBF2DE9F0411F46A1F57C73012B04460E469046056801D9FFF763FF2D692079314642463B46A847BDE8F08130B5054685B0FFF756FF2B6828791C694FF416
:404740007B71002201ABA04708B1002001E0BDF80C0005B030BD70B506460D46FFF742FF336830791C694FF47B7100222B46A047002814BF4FF0FF30002070BD11F0030F45
:4047800070B584460B4632D110F0030F2FD195100446AC4611E053F8106CACF1040C44F8106C53F80C6C44F80C6C53F8086C44F8086C53F8046C44F8046C10341033BCF125
:4047C000030FE8D8AB081B0100EB030CCB1815F003050AD0284600215C584CF8014004310138F9D1AD00AC445B1902F0030213F0010F19462FD11CF0010F60462BD15410B8
:40480000254610E031F8086C043D20F8086C31F8066C20F8066C31F8046C20F8046C31F8026C20F8026C08300831032DEAD8A108C9005B1814F003048C440AD020460021CC
:404840005D5A2CF8015002310138F9D16400A4441B1902F00102614610E013F8040C043A01F8040C13F8030C01F8030C13F8020C01F8020C13F8010C01F8010C1846043373
:40488000032A8C4601F10401E7DC32B10023C15C0CF8031001339342F9D170BD0378E92B01D101207047EB2B01D0002070478078902814BF00200120704708B500F5FF7072
:4048C000FFF708FE4AF65523984214BF0020012008BD01EB001000F5E370FFF7E2BDF0B50D4685B01446064658B352B300210B46FFF780FE002824DB2046FFF7DEFF00B39C
:404900002046FFF7CBFF10B10024274616E02146FFF7DFFF074604F5E570FFF7C2FD01A904463046FFF717FF5CB157B1E219FF23120AB2FBF3F2029B9A4202D81DB12C607B
:4049400001E04FF0FF37384605B0F0BD73B50446FFF7EDFE0646FDF77BFF0C4B05461B8AB3420DD366B1204601A92A46FFF7B7FFB0F1FF3F04D02061019B6361002400E0FD
:40498000FF242846FDF77AFF60B27CBD78750020074B10B55A685C6A01325A605A6B02EBC0014C60002102F83010586210BD00BF0076002010B50E4944680F2301EBC30214
:4049C000126C94420A4A03D213F1FF33F6D210BD0F2B0CD81168091B11608168C06801B1486008B1016010BD02EBC303596410BD00760020F8B5274E0546F368B26B013BFD
:404A00000818134498420C4605D84B591BB943681D44FFF7CFFFB36B9C420BD954F8043C5B42E718E3582BB97B6838461D443C46FFF7C0FF0F2306EBC302126C954203D27C
:404A400013F1FF33F7D223E00F2B21D8083306EBC30251686019002284E82400A160246140F8045C04F1080001B1486006EBC303A160E260586033680649EA1896F8293032
:404A800032602BB9CB689B1A8A68934288BF8B602846F8BD007600202DE9F74F234F8346B846FE68BC6B013E264494E82800A3BB61198E4231D954F805A0BAF1000F2CD01E
:404AC0007B6B13F83A30012B27D1D8F82C302046D1F8049000930191FFF76CFF0199D8F83420086802EBC002546020464A4606F020FD009B04EB09019A4508BFD8F83430BA
:404B0000284604BF5B1BC8F83430FFF773FFBBF1000F01D0584505D24D462C44A642C4D8012000E0002003B0BDE8F08F0076002028B1034BDA6B026002B15060D86370470A
:404B400000760020034B5B6B03EBC00040680830704700BF00760020054BDA690132DA615A6B12F83030013302F83030FFF7EABF0076002030B50368094953F8085C4C6BF6
:404B800014F83530012B03D9CA690AB1013ACA61013B04F8353000230360184630BD00BF00760020024B21F0030118605960704790A2FF1F10B5044660B1074B5B6B03EBA5
:404BC000C00359684868FFF715FF2046BDE81040FFF7DEBE10BD00BF007600202DE9F041224CE36A3BB9224B9D685B680835B3FBF5F5023503E023691D1D05EBD305E800D8
:404C000000F0C2F8804660B3616B226901EBC0035E68184B08361B68D2003046E76A9847226966631346C4F82C80691E8B4205D2013306EBC30040F8043CF7E706EBC30651
:404C40004FF00008C6F80480636862629B1A2B446360256138463FB1FFF7ACFF4046BDE8F0810120BDE8F081BDE8F0810076002090A2FF1F8081FF1F70B5184A92F8283049
:404C800053BB012382F82830154B1021D960996811B95968890899605A2111621026002102EBC10006FA01F5013110290B4C0564F6D158681968A0F114030B4401250222B3
:404CC00022616363A163E0605D6065626560FFF791FEFFF783FF256370BD00BF0076002090A2FF1F2DE9F0410746264E0337FFF7C3FF27F00307306C0437F26B874238BF78
:404D00000746144634B154F8043C9F4223682CD01C46F7E7F368B26B02EB030858F8045CC5EB08052B6833B12046FFF7B5FE58F8045CC5EB08052B680BBB6B689F421EDCDC
:404D400028461C1DFFF736FEF3686868DB1BF3607369E41B3B44C01B2C44736102D02946FFF748FE44F8047C09E00BB161685960616801B10B60A24201D12368F363204632
:404D8000BDE8F081007600202DE9F8430446394EFFF772FF356C3368AC4224BF033424F003050C35AB42334C3ED3236B62689A420FD97368776A013B7360736B4FEAC708D3
:404DC00003EB080252687262012203F8372057B92AE0013B2363FFF701FF236B013323630028E6D020E00F2306EBC302126C95420CD213F1FF33F7D208E094682CB162681B
:404E0000954214D9A268002AF7D101330F2B03D806EBC302526CF6E72846FFF73DFE0028E1D03846FFF7B4FD0020BDE8F883D4F80490336CC5EB09020C339A4238BF4D46DC
:404E40002046FFF7B7FD736B611998444D454FF00003C8F8044027606560A360246141F8045C03DAC5EB0900FFF7C4FD3846BDE8F88300BF0076002008B1FFF785BF7047BF
:404E800073B50646FFF7F8FF054660B1FFF764FE064B02AC44F8040D1B683246002198472046FFF767FE284602B070BD8481FF1F4D4B2DE9F04F1A688BB0D169CC69A38920
:404EC000984208DBE589854205D32568C31A06954FF0FF3613E0A368002B7CD01D88A84279DB5E88864276D35B68401B666880B203EB8005069633F92030B5F90260581CF3
:404F0000099368D091F818B0A17CB2F92A900BFB01F34846B2F92270B2F92480079394F810A001F0EBFC079B089018462E4D099B2968CA69896B0591069900FB03100490C2
:404F4000A37C4146039301230293D37E38460193937E524600935B4601F046FE731C1AD049F0020001F0CAFC2A680699D369926B38460592079A02FB06160496A27C4146E4
:404F8000039201220292DA7E01929B7E524600935B4601F029FE2B68DB695A7E1B7E9A4215D9B9F1020F12D089F0040001F0A6FC0D4B1B68D869437E827E017EC07E4344DD
:404FC00000FB01810AFB0272384601F0F5FC9DF8200001F093FC044B617C1A68538C0B4453840BB0BDE8F08F6081FF1F044B1B68DB69DB6909B11A7C0A60587C704700BF37
:405000006081FF1F02230B807047C3699A89914202DBDA898A420FD2986880B1038899420CD342888A4209D3C91A436833F82100C043C0F3C030704701207047002070472D
:40504000C3B2CAB29A1A92B210B514B2002CBCBF524214B204FB04F2C0F30723C1F307241B1B9BB21CB2090C002CC1EB1041B8BF5B4289B208B2B8BF1CB204FB04230028DF
:40508000BCBF494208B280B200FB003010BD10B538B309B30AB3B2F90040B1F90030A342A8BF2346B2F902400380B1F90230A342A8BF2346B2F904404380B1F90430B2F927
:4050C0000620A342B8BF23468380B1F906309342B8BF1346C38010BD11460B6803604B68436010BD68B1038889B20B440380838892B219444388818013444380C3881A44F1
:40510000C2807047024B1B6858849984002070476081FF1FB0F90220B1F906309A4214DCB1F90220B0F906309A420EDCB0F90020B1F904309A4208DCB0F90400B1F9003001
:405140008342CCBF0020012070470020704708B502F086F802F0ECF8BDE8084002F03CBE01F0FEBE01F002BF034B1B68DA6900B1D8611046704700BF6081FF1F094B10B4F4
:405180001880094B0A461980084B1B68597C084B53F82130D9680C6A01461846234610BC184700BFE8760020D87600206081FF1F1077002070B50B4D00240B4E45F8044BB9
:4051C0003368702221462846984733680422214606489847064B1D60064B1C70064B1C6070BD00BFA0A2FF1F8481FF1F107700206081FF1FF8760020D4760020014BD86070
:40520000704700BF6081FF1F2DE9F3410446042016461F460D4601F071FB124B80461B686846DA6C1B6D14441D4416441F44ADF80040ADF80460ADF80250ADF8067002F046
:405240004BFD28B9404601F059FB02B0BDE8F0813B4632462946204601F0AEFB02F07AFCEFE700BF6081FF1F002110B50846FFF749FFBDE8104043F6FF7302491A46084603
:40528000FFF7C2BF01C0FFFF024BDA6FD8674260704700BFA0A2FF1F10B5094C23686BB901232360FBF746FCFBF756FC2046BDE81040044B40F8803FFFF7E6BF10BD00BFBB
:4052C000A0A2FF1FB551000070B5FFF7E5FF2F4B2E222F4C2F4D1A70FBF728FC2E4B04F10C0123672B681A1DDA6303F10802A2615A7C9B631B64294B53F82200C3681B6BF6
:405300009847274B6366EB6823622B680833A36101232377E37702F059FE032384F86830204BE064606F6363A36301F019FEA86801F01CFE1C4A1D4B1A6001F075FD0546AB
:4053400001F024FF064601F027FF06B140B901F011FF064601F011FF0146304601F010FF00210846FFF70AFF02F088FDA36F43B1A36F33B11B6803B19847A36F5B68A36725
:40538000F6E70B4B01221A70284670BDC9760020A0A2FF1F6081FF1FF8D4000010770020F0D40000785634FF0CD5000008770020F0760020002809DC054B53F8200020B1DD
:4053C000C3681B681BB10068F9E770470020704710770020FFF7ACBBF8B51C1E06460D46174601DD0020F8BD1C20FFF77BFC0028F8D00DB1056109E0084B53F8241029B171
:405400000B680BB11946FBE70B6903610023836084618782C66003604360F8BD1077002081690A4A52F821309842036804D142F821300BB100225A60426802B11360036857
:4054400003B15A6000230360436070471077002030B508B9012030BD8469002CFADC1B4B1A789442A4BF01221A70194A52F8243015461BB942F82400184630BD5A680AB160
:405480001346FBE7C2681268D9680968914203DD1B68002BF8D1DDE709D1818A012906D1196821B10B46C96809688A42F8DD5A6812B11060426001E045F824005860984235
:4054C00008BF00230360002030BD00BFC17600201077002038B51D46FFF77EFF044648B1FFF7B6FFE3681B6823B9034B16351B6843F82540204638BD6081FF1F2DE9F04FCF
:40550000054685B000287FD002F0CEFE404C07462368A146B3F9228002F0AEFE226886B2938C9B1B93842B78002B61D047F6FF71284602F021FF01468246284602F046FFF1
:405540002268938D03F00303012B04D0022B04D190FBF3F302E0034600E00023518C1FFA80FBCB1A9BB219B25184ADF80810B2F924200BF1FF310B44ADF80C30ADF80A20CD
:40558000BBB2013A1A44ADF80E20514602AA2846019302F04BFF2268BDF80A1028469184514600F07DF82A5C05EB000E0A2A019B01D00D2A12D12268918D01F003010139A3
:4055C00001298ABF118CA2F8228051849EF800100A290AD1918C0B44938406E0BDF80800D9F800308344A3F822B09EF8003043B923689A8C16449A8D9E8422F003029A852F
:4056000002E00EF101058EE705B0BDE8F08F00BF6081FF1F024B1B6859849A84FFF76EBF6081FF1FF7B50F4C2568EC6C2D6D26186F1814441D446846ADF80060ADF80440EA
:40564000ADF80270ADF8065002F046FB40B12B4622463946304601F0AFF902F07BFAF5E703B0F0BD6081FF1F024B1A6802B9186000F032B830A3FF1FF8B5084E0468336814
:4056800005461B6820469847336807465B6820469847204428603846F8BD00BF08770020F8B506460D46064F00243DB13B6830465B689847013D06440444F6E72046F8BD34
:4056C000087700200078704701207047012070470170012070470000024B1B6803B11847704700BF90A3FF1F074A00F01F01C0F3C423D35C525CC0F3451003EB0243034AD9
:40570000105C03EB00207047FCD80000BCD80000074AC1B2C0F30743D35C525CC0F3072003EBC223034A105C03EB4010704700BFBCD60000BCD500004FF6FF70704700008A
:40574000F0B5DFF854E00646DEF800E00D4614461F46BEF1000F03D0F446BDE8F04060470B490C4856F8042B013CC2F307435FFA82FECB5C11F80EE0C2F30722825C03EB1C
:40578000CE2303EB42132B803D44EBD1F0BD00BFBCD60000BCD5000098A3FF1FF0B5154E864676680F4614461D461EB1B446BDE8F0406047501E02F1804103FB00E00139A2
:4057C00007EB81010C4E0D4F0288013C02F01F0316F803E04FEAD223F35CC2F34512BA5C03EB0E4303EB022341F80439A0EB0500EAD1F0BD98A3FF1FFCD80000BCD8000093
:40580000104670474068801A01387047084670470068401A0138704710B48468D4F8F840A44610BC60478368D3F8F4301847F7B5164604460D468768FFF7F5FF0190019A7E
:40584000BB6A2946534020463246FFF7E5FF03B0F0BD13B584680092D4F8F040A04702B010BD13B584680093D4F8F0400B46A04702B010BD10B48468D4F8F040A44610BCE5
:40588000604730B48468D4F8EC40A44630BC60477047000073B5079E84680C4D76B1286888B906980090D4F8A8602046B047D4F8A8302B60064BC4F8A83004E02B6813B18D
:4058C000C4F8A8302E6002B070BD00BFA0A3FF1F91580000026CD0F8DC3090691847026CD0F8E030906918472DE9F34791468A4698460A9C85680B9F00942846D5F8A8607D
:40590000B0473946C9EB0404CAEB0806621C286C06FB0222D5F8E430806902B0BDE8F04718472DE9F34791468A4698460A9C85680B9F00942846D5F8A860B0473946C9EB71
:405940000404CAEB0806621C286C06FB0222D5F8E830806902B0BDE8F04718470139172928D8DFE801F01427272727272727270E101219290C272727272727231E250F48C7
:4059800070470F4870470F4870470F48704703689B68D3F80401704703689B68D3F8FC00704703689B68D3F800017047074870470748704700207047064870478F5D000060
:4059C0007B5D0000675D00000D5D0000715C000095580000A55D0000013980680D2923D8DFE801F0090B0D0F2222221125070713181D01207047006870474068704780687A
:405A00007047C0687047806B704788B1406B00F00100704760B1406BC0F34000704738B1406BC0F3800070474FF0FF30704700207047836801290CBF586C0020704782685D
:405A400000230B804B801368013B8B805368013BCB807047F0B5104C91B06D46264607460FCE0FC596E80F00203485E80F000FCC08AD0FC594E80F0085E80F007B6B10AA2B
:405A800002EB830353F8402C53F8203CC7F80821C7F80C3111B0F0BD34D5000007B580698DE806006A460321FBF7A0F803B05DF804FB0846704708467047084670471046D0
:405AC000704710467047104670474068801A013870470068401A013870470068401A013870474068801A013870474068801A013870470068401A013870472DE9F3418468F3
:405B00009846E38C0E469B0717462ED5D4F80831204698470546D4F80C313A46314620469847A36922699D42D4BF002301239542B8BF43F00103626906469042B8BF43F080
:405B4000010313B9E36998420ADD62682368013A00920022D4F8A870013B11462046B847D4F8AC303246294601E0D4F8AC302046984741462046D4F8A43002B0BDE8F041B6
:405B80001847F7B584680E46E38C17469B0743D5D4F8083120469847D4F80C31314605463A4620469847D4F8983006461BB10022012120469847A36922699D42D4BF0023D9
:405BC00001239542B8BF43F0010362699642B8BF43F0010313B9E3699E420ADD62682368013A00920022D4F8A870013B11462046B8472946D4F8AC30324620469847D4F80C
:405C0000A03020469847D4F8983005467BB101220021204698470AE0D4F8AC30204698472046D4F8A03003B0BDE8F0401847284603B0F0BD38B5856804469DB94FF4BE7042
:405C4000FFF750F8084B4FF4BE721B68A06029469847A3680222DA8401221A62034A1C64C3F8102138BD00BF8481FF1F555A000070B506460D461446FFF7DCFFB368002BAF
:405C80003BD0262D02D0272D16D070BD9A6B102A02D0122A08D070BD184AC3F8DC40C3F8B820C3F8B42070BD154AC3F8E040C3F8BC20C3F8C02070BD9A6B102A02D0122A8D
:405CC0000ED070BD3CB10F4AC3F8E440C3F8CC20C3F8C82070BDC3F8CC40C3F8C84070BD3CB1094AC3F8E840C3F8D020C3F8D42070BDC3F8D040C3F8D44070BDD5580000A8
:405D0000DF580000E95800002359000070B50646FFF790FF4FF4FA70B568FEF7E3FFA866B0FA80F4A86B2B680730C0105843FEF7D9FF002200284FF00101E866B0694FEA6C
:405D4000541408BF0124FAF751FFD5F810310443284698472846D5F8B0309847002CD4BF0020012070BD70B506460D461446FFF761FFB3681D605C6070BD70B506460D460C
:405D80001446FFF757FFB3689D60DC6070BD10B50446FFF74FFFA06900220621BDE81040FAF724BF10B50446FFF744FFA06900220521BDE81040FAF719BF38B50C4605466D
:405DC000FFF738FF2268AB68DA6262681A63A2685A63520707D51A68596883E806009A68D968DA609960A2899A84226912B122EAE2721A6238BD2DE9F041044688461E4605
:405E00001746FFF717FFA5686822414605F58A7005F084FB2046B8472046B04723699B689847A862BDE8F0810B0A80F8713080F87210D0F820310221713018472DE9F04178
:405E400015460446806E0E460021A5B1034636F8022B0131170AFA2903F8027B427007D1D4F820314FF4FA71A06E9847A36E0021013D1846E9E731B1D4F82031A06E4900FC
:405E8000BDE8F0411847BDE8F08108B5D0F8B830984708BD89B2FFF7C7BF00002DE9F04F3E4E82468568306885B0007C884610F0010F14469946A3EB01003DD04300039364
:405EC000471C0E9B9C4266DCD5F8CCB0EE6EBBF1000F01D1C34607E08DE850004B46224641465046D8470DE0CB450ADC5946D5F8F4302246504698470BF1010B26F8020BD7
:405F0000F2E7EE6E039AB31E1644B34205D0A96A33F8022F4A401A80F7E7009422464B4641462846D5F8A860B0473A46E96E2846FFF784FF0134C4E70E9FBC1A671C00FB3C
:405F400007770E980090D5F8A8402846A0473368AE6EDB6B1C680123C4F3072906EB030AE4B2C7B1B846F92F28BF4FF0F9084FEA48013BB9D5F8203150469847C8EB0707B4
:405F80000023EEE7334672189342F3D083F8019003F8024FF8E705B0BDE8F08F6081FF1F2DE9F04F8FB00393836805900993199B0691082B08920CD8199A4FF48B73D340F6
:405FC000DB0706D5984B1B681B7C03F00303022B10D0069B1C9A18989918089A039B0244013A0092099ACB18D2F8A840013B089A0998A047039B1C9A013B0D93069B089FC0
:4060000013440493049A0D9B13440C93089B189AFB1A9A4240F35382199B013B0F2B00F24882DFE813F01000C10046024801460246024602D80146024602460246024602BD
:40604000460246024102059B9C681D9B5B680B93754B1B681B7C03F00303022B22D0032B76D0012B74D01D9B039E1C9DDDF86CB0B3F80090BDF82CA04FF080089BF8002081
:4060800048FA05F31A4214BF5146494601352046FFF7CAFE082D04BF0BF1010B0025013EECD106E21B9B00250A932B46DDF810B0D4F86CA0DDF87080CDF81CB00A9A92F814
:4060C0000090802242FA08F219EA02090DD01BB9D4F86CA0DDF81CB0BDF82C300135AAF800300AF1020A012313E0012B10D1079B0097013B3A4659462046D4F8A860B047F7
:406100002A46E16E2046FFF799FE4D464B4600E04B46079A08F101080132B8F1080F079208BF0A9A039904BF01320A92049A08BF4FF000080A4407999142BFD1002D00F036
:40614000B8810097D4F8A8600C9B3A465946A5E1039B049A1C9DDDF86C80079303EB020A4FF0800B079B98F80020C3EB0A094BFA05F31A420DD0D4F8F4303A4649460598F6
:406180009847A36A3A46434049460598D4F8F860B0470135079B082D04BF08F101080025013B0793DED184E1059B9C681D9B002B00F07F811B9B93F800B01B4B1B681B7CE0
:4061C00013F003030FD0022B40F07381049B00260A931B9BD4F86CA0DDF870900B93DDF81080324645E01C9D039EDDF86C904FF0C008C5F103035A00C2F1060348FA03F3C5
:4062000003EA0B03D3401D9A013532F823102046FFF70AFE042D02BF99F801B0002509F10109013EE5D144E16081FF1F1AB9D4F86CA0CDF82880079A1D9B013653F82230E7
:406240000AF1020A2AF8023C012209F10109B9F1040F08F1010806D10B9B4FF0000993F801B001330B93049B03990B44984500F0A680C9F103056D00C5F10603C02141FA77
:4062800003F303EA0B03EB400793CFD1012A10D1009708F1FF333A460A992046D4F8A850A8473246E16E2046FFF7C8FD079E3246CBE7079AC9E7059B9C681D9B002B00F0FF
:4062C000F8801B9B93F800B07E4B1B681B7C13F003030FD0022B40F0EC80049B00260A931B9BD4F86CA0DDF870900B93DDF81080324642E01C9D039EDDF86C904FF0F008DD
:40630000C5F101039A00C2F1040348FA03F303EA0B03D3401D9A013532F823102046FFF783FD022D02BF99F801B0002509F10109013EE5D1BDE01AB9D4F86CA0CDF82880DE
:40634000079A1D9B013653F822300AF1020A2AF8023C012209F10109B9F1020F08F1010806D10B9B4FF0000993F801B001330B93039B04990B44984521D0C9F10105AD000D
:40638000C5F10403F02141FA03F303EA0B03EB400793D0D1012A10D1009708F1FF333A460A992046D4F8A850A8473246E16E2046FFF744FD079E3246CCE7079ACAE7002EBF
:4063C00077D000973A46D4F8A8500C9B0A992046A847324665E0059B9C681D9B002B68D0384B1B681B7C13F003030FD0022B60D1DDF818A0039A00255244D4F86C80DDF80B
:406400006CB0CDF81CA02B460A9224E01B9D039B1B9A5B1B1344002B4BDD15F8013B1D9A204632F82310FFF7FFFCF0E71BB9D4F86C80DDF81CA01D9B013553F8293008F150
:40644000020828F8023C0123079A0132079207990A9A914219D01BF8019BB9F1000FE5D1012B10D1079B0097013B3A4651462046D4F8A860B0472A46E16E2046FFF7DEFC46
:406480004D464B46E0E74B46DEE70D9B069A13447DB13A4651460097D4F8A8602046B0472A46E16E204602E0039A1B990998FFF7C5FC1B9B1A9A013713441B93A6E50FB04E
:4064C000BDE8F08F6081FF1F10B50446FFF7B2FBA468104B0821C4F8EC300F4B2046C4F8F0300E4BC4F8F4300D4BC4F8F8300D4BC4F8A0300C4BC4F8A430D4F8CC30C4F8FF
:406500000431D4F8943098471023A363074B636410BD00BFA15F00009D5E0000835B0000FB5A00008B5E0000955E000044D900002DE9F04104460E461546D0F88C302A21A3
:406540009847E16AD4F8903031442046C1F30F219847E16AB7B23944D4F890302046C9B29847E16AD4F8903031442046C1F30F219847E16AD4F8903039442046C9B29847C1
:40658000D4F88C3020462B219847216BD4F8903029442046C1F30F219847216BAEB23144D4F890302046C9B29847216BD4F8903029442046C1F30F219847216BD4F89030A1
:4065C00031442046C9B29847D4F88C302046BDE8F0412C2118472DE9F041044688461F461646D0F88C302A21069D9847E16AD4F8903041442046C1F30F219847E16AD4F8E9
:40660000903041442046C9B29847E16AD4F8903039442046C1F30F219847E16AD4F8903039442046C9B29847D4F88C3020462B219847216BD4F8903031442046C1F30F21D4
:406640009847216BD4F8903031442046C9B29847216BD4F8903029442046C1F30F219847216BD4F8903029442046C9B29847D4F88C302046BDE8F0412C21184713B5044679
:406680006B460D4A1068516803C3D4F88C302046362198472046636B02AAA18C134413F8083C21F0E0011943D4F8903089B202B0BDE81040184700BFA8D5000013B504469B
:4066C000D0F814312E209847216AD4F83031684603319847236A0DEB03021DF803305078DB088008DB0243EA4013907843EAD00002B010BD1FB50446D0F834312E20984789
:40670000216AD4F85031684602319847226A0DEB42035B88C3F3C4005B1103F4FC6303433DF81200000200F47840184304B010BD70B505460C46D0F81431080A9847D5F835
:406740001431E0B2BDE870401847D0F8343108461847D0F81831C8B21847D0F83831084618470000082902D0102905D07047064BC0F88C30054B03E0054BC0F88C30054B18
:40678000C0F89030704700BF31670000536700004B6700005B670000F0B585B00A9F8568BC1A581A0097013400FB0444D5F8A87028460B9EB847D5F814312E209847D5F857
:4067C0003031296A02A89847D5F83031032102A898479DF80930013C4FEA93029DF808304FEAD3034FEAC32343EA42139DF80A2043EAD20326F8023BE6D105B0F0BDF0B511
:4068000087B00C9F8568BC1A581A0097013400FB0444D5F8A87028460D9EB847D5F834312E209847D5F85031296A02A89847D5F85031022102A89847BDF80A30013CC3F390
:40684000C4024FEA631303F4FC6343EA0203BDF808204FEA022222F4FF6243EA020326F8023BE4D107B0F0BD10B50446FFF7E2F9A368114A0021C3F8AC20104AC3F8BC10F5
:40688000C3F8A8200E4AC3F8D010C3F8B0200D4AC3F8B8200C4A10685268C3F8B400C3F8C820DA8C094822F00302DA84084AC3F8CC00C3F8942010BD31650000D765000040
:4068C0007D660000BD6600007081FF1F996700006567000070B5084B1B681A7C82EA0001490705D59C6BD96B25680E6826600D601874104670BD00BF6081FF1F014B1B68B2
:406900009B6818477881FF1F0A46154B30B41B680446B3F90A10914220DCB3F90E108A421CDCB3F90810814218DCB3F90C10884214DC197C587C11F0010F0A4951F8200027
:4069400004D0C368214630BCDB691847C168DB6B8D691B682146AC4630BC604730BC70476081FF1F10770020114B30B41C680D46B4F90A308B4219DCB4F90E30994215DC8E
:40698000B4F90810B4F90C308142B8BF01469342A8BF1346994209DC607C064A52F82000C26894682A46A44630BC604730BC70476081FF1F1077002073B5134C2468B4F9A1
:4069C0000850B4F90C608542B8BF05469642A8BF1646AE4215DBB4F90A208A42B8BF0A46B4F90E108B42A8BF0B469A4209DC607C064951F82000C16800930C6933462946FA
:406A0000A04702B070BD00BF6081FF1F107700202DE9F04F8FB0189DDFF8C8E10295199DDEF800E008951B9D079003950C4617460193DDF868A01C9EDDF874B01E9DBEF19E
:406A4000000F02D0DEF8004054E0029B089A1343012B54D1614B1868B0F90A20531A002B0ADD0199C3EB010EBEF1000F40F3B280039901FB036602E00A46DDF804E0019B85
:406A80001C44B0F90E30013CE41A002C05DDC4EB0E0EBEF1000F40F39D80079BB0F90C103B44013B5B1A002BC8BFFF1A079B591BB0F90830994209DA5B1A1D44FF1A23F054
:406AC000070306EBE506194405F00705002F40F38180407C424B039C53F82000C368CDF874B01C951B961A94CDF864A0CDF860E05C683B46A4460FB0BDE8F04F6047754676
:406B0000CAF108030B93029BDFF8D090013BCDF814E00D93059B019A93425BDA089BE3180993013B0A93D9F800300A99B3F90A208A4248DCB3F90E309C4244DC079B4FF0FD
:406B4000000806960093CDF81080049BBB423ADAB8F1000F05D1069B4FF008081D78013306930B9BCAEB080845FA03F313F0FF0105FA0AF5EDB204D1D9F80020127C9207CC
:406B800019D4D9F80020D26B10680C90BBF1000F02D05BF8213000E0DBB2136000990D9A0A9B0A4400982146FFF706FFD9F800300C9ADB6B1A60049B029A01330493009B60
:406BC00013440093C1E7059B099C01330593039B1E449FE70FB0BDE8F08F00BF6081FF1F10770020CC7600202DE9F04F8FB0189CDFF814E20294199C1D9E0894DEF800E055
:406C00001B9C054603940091904601931A9F1C9C0496BEF1000F02D0DEF800407AE0029B089A1343012B7AD1754B01991868009BB0F90A20D31A002B07DDC91A002940F326
:406C4000DB80039E06FB034400E0009A9DE848001E44B0F90E30013EF61A002E03DD891B002940F3C98005EB0803B0F90C60013B9B1BB0F90860002BC8BFC3EB0808B54220
:406C800031DA731B082FC3EB080827D00DDC022F14D0042F1AD0012F26D123F0070604EBE304354403F007031EE0182F18D0202F16D0102F18D104EB430413E023F00306D2
:406CC00004EBA304354403F003030DE023F0010604EB6304354403F0010305E01C4401E004EB830435460023B8F1000F40F38480467C444850F82600049ED0F80CE01C93D5
:406D0000039B18911A93294643461D961B941997DEF80440A4460FB0BDE8F04F6047F346C7F108030B93029BDFF8D4A0013BCDF818E00D93069B019A93425DDA009A089B67
:406D400013440993013B0A93DAF800300A99B3F90A208A4248DCB3F90E30009A9A4243DC2E464FF000090794CDF81490059B43453ADAB9F1000F06D1079B4FF0080993F854
:406D800000B0013307930B9B0BFA07F24BFA03F313F0FF015FFA82FBC7EB090904D1DAF80020127C920717D4DAF80020D26B10680C90049810B150F8213000E0DBB21360E7
:406DC0000D9A0A9B324400993046FFF7F5FDDAF800300C9ADB6B1A60059B029A01330593334613441E46C1E7069B01330693039B1C44099B00939DE70FB0BDE8F08F00BFC5
:406E00006081FF1F10770020CC760020044B1968044B4A7C083153F82200C3681B6B18476081FF1F1077002007B5FFF7EFFF00F0B1F8002839D1FEF7BDFA019038B900F080
:406E4000FFF81B4B1A681B4B9A420CD12AE0C3680C215B6A01A89847034628B3019898470028ECD021E00020FEF7A4FA0190C8B1002001F02FFB0420FFF740FD43F6FF73EA
:406E800000211A460846FFF797FD0020FFF736FD019B0E21DB6801A85B6A9847034608B101989847002000E0012003B05DF804FB14A3FF1F785634FF044B1B685A7C044B66
:406EC00053F822301B691B68184700BF6081FF1F10770020044B1B685A7C044B53F822301B695B68184700BF6081FF1F10770020044B1B681A7C52074CBF9B6BDB6B1860FB
:406F0000704700BF6081FF1F08B5064B1B68196B814206D01863FFF7CFFFBDE80840FFF7E7BF08BD6081FF1F044B1B681A7C52074CBFDB6B9B6B1860704700BF6081FF1F9D
:406F400008B5064B1B68596B814206D05863FFF7B3FFBDE80840FFF7E7BF08BD6081FF1F014B1B685B6818477881FF1F014B1B681B6818477881FF1F10B5044C2068FDF712
:406F8000D7FD034A00232360136010BD1C770020BCA3FF1F38B50A4D2C6864B9094B18688000FDF79FFE286038B10748074B40F8043FFEF769F9002038BD012038BD00BFF2
:406FC0001C7700207C81FF1FBCA3FF1F796F00002DE9F843044618B387681FB3144D286820B32268B2F5807F1FDC124B00261B689A42A8BF1A469046464509DA57F82600E6
:40700000D5F80090FFF758FF49F826000136F3E7094B1B680BB1204698472868BDE8F883BDE8F8833846BDE8F8830020BDE8F8831C7700207C81FF1FBCA3FF1FFFF7C8BFE0
:407040002DE9F74F00F003F91C4E8046B146DFF874A0002444452DDA2046FEF7ABF938B33368204693F811B05C7400F047F8082804DDD9F8003083F811B019E05AF82430DF
:407080001A690F4B9A42F4D0204600F03AF8034600259D42EDDAEFB238460193FFF71AFF39460246204600F0FBF80135019BF0E70134CFE703B0BDE8F08F00BF6081FF1FBC
:4070C0002CD900001077002010B50C46FEF772F928B1C3682146BDE810409B6A184710BD002801DCFFF7F0BF00207047014608B50020FFF7E9FF20EAE07008BD0821FFF71B
:40710000EFBF0921FFF7ECBF024B1B68587CFFF7F8BF00BF6081FF1F034B082153F82000C3689B6A184700BF1077002010B5FEF741F928B1BDE81040C3680221DB6A18473C
:4071400010BD0000024B1B68587CFFF7EFBF00BF6081FF1F024B53F820301B695868704710770020024B53F820301B6918687047107700200120FFF7B9BF0220FFF7B6BF4C
:40718000014B83E803007047C8A3FF1F014B1868704700BFC8A3FF1F014B5868704700BFC8A3FF1F00283BD030F0010329D030F0030328D030F0070327D030F00F0326D048
:4071C00030F01F0325D030F0FF0324D020F4FF7323F001030BB320F47F6323F00F03E3B120F4FF4323F07F03BBB1030C1B04A3B1830C9B049BB110F07F4F0CBF18202020D4
:407200007047012070470220704703207047042070470520704708207047102070471220704708B5FFF7BEFF01280FD0831E062B09D9A0F10903072B07D911380F288CBF00
